{
  "contractName": "PatientDataManagementSystem",
  "abi": [
    {
      "inputs": [
        {
          "internalType": "address",
          "name": "_authorizedHospital",
          "type": "address"
        }
      ],
      "stateMutability": "nonpayable",
      "type": "constructor"
    },
    {
      "anonymous": false,
      "inputs": [
        {
          "indexed": false,
          "internalType": "uint256",
          "name": "patientId",
          "type": "uint256"
        },
        {
          "indexed": false,
          "internalType": "address",
          "name": "insuranceCompany",
          "type": "address"
        }
      ],
      "name": "InsuranceCompanyAssigned",
      "type": "event"
    },
    {
      "anonymous": false,
      "inputs": [
        {
          "indexed": false,
          "internalType": "uint256",
          "name": "patientId",
          "type": "uint256"
        },
        {
          "indexed": false,
          "internalType": "uint256",
          "name": "billId",
          "type": "uint256"
        }
      ],
      "name": "MedicalBillProcessed",
      "type": "event"
    },
    {
      "anonymous": false,
      "inputs": [
        {
          "indexed": false,
          "internalType": "uint256",
          "name": "patientId",
          "type": "uint256"
        },
        {
          "indexed": false,
          "internalType": "uint256",
          "name": "billId",
          "type": "uint256"
        },
        {
          "indexed": false,
          "internalType": "uint256",
          "name": "amount",
          "type": "uint256"
        },
        {
          "indexed": false,
          "internalType": "string",
          "name": "description",
          "type": "string"
        },
        {
          "indexed": false,
          "internalType": "string",
          "name": "treatmentDate",
          "type": "string"
        },
        {
          "indexed": false,
          "internalType": "address",
          "name": "insuranceCompany",
          "type": "address"
        }
      ],
      "name": "NewMedicalBill",
      "type": "event"
    },
    {
      "anonymous": false,
      "inputs": [
        {
          "indexed": false,
          "internalType": "uint256",
          "name": "id",
          "type": "uint256"
        },
        {
          "indexed": false,
          "internalType": "string",
          "name": "name",
          "type": "string"
        },
        {
          "indexed": false,
          "internalType": "uint256",
          "name": "age",
          "type": "uint256"
        },
        {
          "indexed": false,
          "internalType": "string",
          "name": "medicalHistory",
          "type": "string"
        },
        {
          "indexed": false,
          "internalType": "address",
          "name": "patientAddress",
          "type": "address"
        }
      ],
      "name": "NewPatient",
      "type": "event"
    },
    {
      "inputs": [
        {
          "internalType": "string",
          "name": "_name",
          "type": "string"
        },
        {
          "internalType": "uint256",
          "name": "_age",
          "type": "uint256"
        },
        {
          "internalType": "string",
          "name": "_medicalHistory",
          "type": "string"
        }
      ],
      "name": "addPatient",
      "outputs": [],
      "stateMutability": "nonpayable",
      "type": "function"
    },
    {
      "inputs": [
        {
          "internalType": "uint256",
          "name": "_patientId",
          "type": "uint256"
        },
        {
          "internalType": "uint256",
          "name": "_amount",
          "type": "uint256"
        },
        {
          "internalType": "string",
          "name": "_description",
          "type": "string"
        },
        {
          "internalType": "string",
          "name": "_treatmentDate",
          "type": "string"
        }
      ],
      "name": "addMedicalBill",
      "outputs": [],
      "stateMutability": "nonpayable",
      "type": "function"
    },
    {
      "inputs": [
        {
          "internalType": "uint256",
          "name": "_patientId",
          "type": "uint256"
        },
        {
          "internalType": "address",
          "name": "_insuranceCompany",
          "type": "address"
        }
      ],
      "name": "assignInsuranceCompany",
      "outputs": [],
      "stateMutability": "nonpayable",
      "type": "function"
    },
    {
      "inputs": [
        {
          "internalType": "uint256",
          "name": "_patientId",
          "type": "uint256"
        },
        {
          "internalType": "uint256",
          "name": "_billId",
          "type": "uint256"
        }
      ],
      "name": "processMedicalBill",
      "outputs": [],
      "stateMutability": "nonpayable",
      "type": "function"
    },
    {
      "inputs": [
        {
          "internalType": "uint256",
          "name": "_id",
          "type": "uint256"
        }
      ],
      "name": "getPatient",
      "outputs": [
        {
          "components": [
            {
              "internalType": "uint256",
              "name": "id",
              "type": "uint256"
            },
            {
              "internalType": "string",
              "name": "name",
              "type": "string"
            },
            {
              "internalType": "uint256",
              "name": "age",
              "type": "uint256"
            },
            {
              "internalType": "string",
              "name": "medicalHistory",
              "type": "string"
            },
            {
              "internalType": "address",
              "name": "patientAddress",
              "type": "address"
            },
            {
              "internalType": "address",
              "name": "insuranceCompany",
              "type": "address"
            },
            {
              "internalType": "uint256[]",
              "name": "billIds",
              "type": "uint256[]"
            }
          ],
          "internalType": "struct PatientDataManagementSystem.Patient",
          "name": "",
          "type": "tuple"
        }
      ],
      "stateMutability": "view",
      "type": "function",
      "constant": true
    },
    {
      "inputs": [
        {
          "internalType": "uint256",
          "name": "_patientId",
          "type": "uint256"
        },
        {
          "internalType": "uint256",
          "name": "_billId",
          "type": "uint256"
        }
      ],
      "name": "getMedicalBill",
      "outputs": [
        {
          "components": [
            {
              "internalType": "uint256",
              "name": "patientId",
              "type": "uint256"
            },
            {
              "internalType": "uint256",
              "name": "billId",
              "type": "uint256"
            },
            {
              "internalType": "uint256",
              "name": "amount",
              "type": "uint256"
            },
            {
              "internalType": "string",
              "name": "description",
              "type": "string"
            },
            {
              "internalType": "string",
              "name": "treatmentDate",
              "type": "string"
            },
            {
              "internalType": "bool",
              "name": "isProcessed",
              "type": "bool"
            },
            {
              "internalType": "address",
              "name": "insuranceCompany",
              "type": "address"
            }
          ],
          "internalType": "struct PatientDataManagementSystem.MedicalBill",
          "name": "",
          "type": "tuple"
        }
      ],
      "stateMutability": "view",
      "type": "function",
      "constant": true
    },
    {
      "inputs": [
        {
          "internalType": "uint256",
          "name": "_patientId",
          "type": "uint256"
        }
      ],
      "name": "getAllMedicalRecords",
      "outputs": [
        {
          "components": [
            {
              "internalType": "uint256",
              "name": "patientId",
              "type": "uint256"
            },
            {
              "internalType": "uint256",
              "name": "billId",
              "type": "uint256"
            },
            {
              "internalType": "uint256",
              "name": "amount",
              "type": "uint256"
            },
            {
              "internalType": "string",
              "name": "description",
              "type": "string"
            },
            {
              "internalType": "string",
              "name": "treatmentDate",
              "type": "string"
            },
            {
              "internalType": "bool",
              "name": "isProcessed",
              "type": "bool"
            },
            {
              "internalType": "address",
              "name": "insuranceCompany",
              "type": "address"
            }
          ],
          "internalType": "struct PatientDataManagementSystem.MedicalBill[]",
          "name": "",
          "type": "tuple[]"
        }
      ],
      "stateMutability": "view",
      "type": "function",
      "constant": true
    }
  ],
  "bytecode": "0x60806040523480156200001157600080fd5b5060405162002339380380620023398339818101604052810190620000379190620000e9565b80600260006101000a81548173ffffffffffffffffffffffffffffffffffffffff021916908373ffffffffffffffffffffffffffffffffffffffff160217905550506200011b565b600080fd5b600073ffffffffffffffffffffffffffffffffffffffff82169050919050565b6000620000b18262000084565b9050919050565b620000c381620000a4565b8114620000cf57600080fd5b50565b600081519050620000e381620000b8565b92915050565b6000602082840312156200010257620001016200007f565b5b60006200011284828501620000d2565b91505092915050565b61220e806200012b6000396000f3fe608060405234801561001057600080fd5b506004361061007d5760003560e01c80639a0b3d1e1161005b5780639a0b3d1e146100ea578063d3d10f7b1461011a578063d65da44a14610136578063f622933f146101525761007d565b80636762b429146100825780637d3a67961461009e578063980adec7146100ce575b600080fd5b61009c6004803603810190610097919061127a565b610182565b005b6100b860048036038101906100b391906112ba565b61032e565b6040516100c59190611520565b60405180910390f35b6100e860048036038101906100e39190611677565b610596565b005b61010460048036038101906100ff919061127a565b61081d565b60405161011191906117d4565b60405180910390f35b610134600480360381019061012f9190611822565b610a0f565b005b610150600480360381019061014b9190611862565b610b66565b005b61016c600480360381019061016791906112ba565b610e01565b6040516101799190611a52565b60405180910390f35b60016000838152602001908152602001600020600082815260200190815260200160002060050160019054906101000a900473ffffffffffffffffffffffffffffffffffffffff1673ffffffffffffffffffffffffffffffffffffffff163373ffffffffffffffffffffffffffffffffffffffff1614610237576040517f08c379a000000000000000000000000000000000000000000000000000000000815260040161022e90611af7565b60405180910390fd5b6000151560016000848152602001908152602001600020600083815260200190815260200160002060050160009054906101000a900460ff161515146102b2576040517f08c379a00000000000000000000000000000000000000000000000000000000081526004016102a990611b63565b60405180910390fd5b6001806000848152602001908152602001600020600083815260200190815260200160002060050160006101000a81548160ff0219169083151502179055507f613c8a26197a827aab77a97d97e959ddfea9b65ca0cfc6a946d9144c6a4e361d8282604051610322929190611b92565b60405180910390a15050565b610336611108565b6000808381526020019081526020016000206040518060e00160405290816000820154815260200160018201805461036d90611bea565b80601f016020809104026020016040519081016040528092919081815260200182805461039990611bea565b80156103e65780601f106103bb576101008083540402835291602001916103e6565b820191906000526020600020905b8154815290600101906020018083116103c957829003601f168201915b505050505081526020016002820154815260200160038201805461040990611bea565b80601f016020809104026020016040519081016040528092919081815260200182805461043590611bea565b80156104825780601f1061045757610100808354040283529160200191610482565b820191906000526020600020905b81548152906001019060200180831161046557829003601f168201915b505050505081526020016004820160009054906101000a900473ffffffffffffffffffffffffffffffffffffffff1673ffffffffffffffffffffffffffffffffffffffff1673ffffffffffffffffffffffffffffffffffffffff1681526020016005820160009054906101000a900473ffffffffffffffffffffffffffffffffffffffff1673ffffffffffffffffffffffffffffffffffffffff1673ffffffffffffffffffffffffffffffffffffffff1681526020016006820180548060200260200160405190810160405280929190818152602001828054801561058657602002820191906000526020600020905b815481526020019060010190808311610572575b5050505050815250509050919050565b600260009054906101000a900473ffffffffffffffffffffffffffffffffffffffff1673ffffffffffffffffffffffffffffffffffffffff163373ffffffffffffffffffffffffffffffffffffffff1614610626576040517f08c379a000000000000000000000000000000000000000000000000000000000815260040161061d90611c8d565b60405180910390fd5b6000600160046000878152602001908152602001600020546106489190611cdc565b905060046000868152602001908152602001600020600081548092919061066e90611d10565b91905055506040518060e00160405280828152602001868152602001858152602001848152602001838152602001600015158152602001600073ffffffffffffffffffffffffffffffffffffffff1681525060016000878152602001908152602001600020600083815260200190815260200160002060008201518160000155602082015181600101556040820151816002015560608201518160030190816107179190611f04565b50608082015181600401908161072d9190611f04565b5060a08201518160050160006101000a81548160ff02191690831515021790555060c08201518160050160016101000a81548173ffffffffffffffffffffffffffffffffffffffff021916908373ffffffffffffffffffffffffffffffffffffffff1602179055509050506000808681526020019081526020016000206006018190806001815401808255809150506001900390600052602060002001600090919091909150557ff33b4498d0bbe456a9076d829114ba6d61506cb062e27b3cf55e250ef298f4578582868686600060405161080e9695949392919061201e565b60405180910390a15050505050565b610825611171565b6001600084815260200190815260200160002060008381526020019081526020016000206040518060e001604052908160008201548152602001600182015481526020016002820154815260200160038201805461088290611bea565b80601f01602080910402602001604051908101604052809291908181526020018280546108ae90611bea565b80156108fb5780601f106108d0576101008083540402835291602001916108fb565b820191906000526020600020905b8154815290600101906020018083116108de57829003601f168201915b5050505050815260200160048201805461091490611bea565b80601f016020809104026020016040519081016040528092919081815260200182805461094090611bea565b801561098d5780601f106109625761010080835404028352916020019161098d565b820191906000526020600020905b81548152906001019060200180831161097057829003601f168201915b505050505081526020016005820160009054906101000a900460ff161515151581526020016005820160019054906101000a900473ffffffffffffffffffffffffffffffffffffffff1673ffffffffffffffffffffffffffffffffffffffff1673ffffffffffffffffffffffffffffffffffffffff1681525050905092915050565b8060008084815260200190815260200160002060050160006101000a81548173ffffffffffffffffffffffffffffffffffffffff021916908373ffffffffffffffffffffffffffffffffffffffff1602179055506000806000848152602001908152602001600020600601905060005b8180549050811015610b27576000828281548110610aa057610a9f61208d565b5b906000526020600020015490508360016000878152602001908152602001600020600083815260200190815260200160002060050160016101000a81548173ffffffffffffffffffffffffffffffffffffffff021916908373ffffffffffffffffffffffffffffffffffffffff160217905550508080610b1f90611d10565b915050610a7f565b507fe8dfa1000a377c1be6687e0c2f30a28b8ab10bc929a3272894b169f3385dea8b8383604051610b599291906120bc565b60405180910390a1505050565b600260009054906101000a900473ffffffffffffffffffffffffffffffffffffffff1673ffffffffffffffffffffffffffffffffffffffff163373ffffffffffffffffffffffffffffffffffffffff1614610bf6576040517f08c379a0000000000000000000000000000000000000000000000000000000008152600401610bed90612157565b60405180910390fd5b60036000815480929190610c0990611d10565b91905055506040518060e0016040528060035481526020018481526020018381526020018281526020013373ffffffffffffffffffffffffffffffffffffffff168152602001600073ffffffffffffffffffffffffffffffffffffffff168152602001600067ffffffffffffffff811115610c8757610c8661154c565b5b604051908082528060200260200182016040528015610cb55781602001602082028036833780820191505090505b508152506000806003548152602001908152602001600020600082015181600001556020820151816001019081610cec9190611f04565b50604082015181600201556060820151816003019081610d0c9190611f04565b5060808201518160040160006101000a81548173ffffffffffffffffffffffffffffffffffffffff021916908373ffffffffffffffffffffffffffffffffffffffff16021790555060a08201518160050160006101000a81548173ffffffffffffffffffffffffffffffffffffffff021916908373ffffffffffffffffffffffffffffffffffffffff16021790555060c0820151816006019080519060200190610db79291906111c6565b509050507ff601e85cdfc0dc6ee174a2fa9131668562f1bd9eca109a01ccc68841f4424e6c60035484848433604051610df4959493929190612177565b60405180910390a1505050565b60606000806000848152602001908152602001600020600601805480602002602001604051908101604052809291908181526020018280548015610e6457602002820191906000526020600020905b815481526020019060010190808311610e50575b505050505090506000815167ffffffffffffffff811115610e8857610e8761154c565b5b604051908082528060200260200182016040528015610ec157816020015b610eae611171565b815260200190600190039081610ea65790505b50905060005b82518110156110fd57600160008681526020019081526020016000206000848381518110610ef857610ef761208d565b5b602002602001015181526020019081526020016000206040518060e0016040529081600082015481526020016001820154815260200160028201548152602001600382018054610f4790611bea565b80601f0160208091040260200160405190810160405280929190818152602001828054610f7390611bea565b8015610fc05780601f10610f9557610100808354040283529160200191610fc0565b820191906000526020600020905b815481529060010190602001808311610fa357829003601f168201915b50505050508152602001600482018054610fd990611bea565b80601f016020809104026020016040519081016040528092919081815260200182805461100590611bea565b80156110525780601f1061102757610100808354040283529160200191611052565b820191906000526020600020905b81548152906001019060200180831161103557829003601f168201915b505050505081526020016005820160009054906101000a900460ff161515151581526020016005820160019054906101000a900473ffffffffffffffffffffffffffffffffffffffff1673ffffffffffffffffffffffffffffffffffffffff1673ffffffffffffffffffffffffffffffffffffffff16815250508282815181106110df576110de61208d565b5b602002602001018190525080806110f590611d10565b915050610ec7565b508092505050919050565b6040518060e0016040528060008152602001606081526020016000815260200160608152602001600073ffffffffffffffffffffffffffffffffffffffff168152602001600073ffffffffffffffffffffffffffffffffffffffff168152602001606081525090565b6040518060e001604052806000815260200160008152602001600081526020016060815260200160608152602001600015158152602001600073ffffffffffffffffffffffffffffffffffffffff1681525090565b828054828255906000526020600020908101928215611202579160200282015b828111156112015782518255916020019190600101906111e6565b5b50905061120f9190611213565b5090565b5b8082111561122c576000816000905550600101611214565b5090565b6000604051905090565b600080fd5b600080fd5b6000819050919050565b61125781611244565b811461126257600080fd5b50565b6000813590506112748161124e565b92915050565b600080604083850312156112915761129061123a565b5b600061129f85828601611265565b92505060206112b085828601611265565b9150509250929050565b6000602082840312156112d0576112cf61123a565b5b60006112de84828501611265565b91505092915050565b6112f081611244565b82525050565b600081519050919050565b600082825260208201905092915050565b60005b83811015611330578082015181840152602081019050611315565b60008484015250505050565b6000601f19601f8301169050919050565b6000611358826112f6565b6113628185611301565b9350611372818560208601611312565b61137b8161133c565b840191505092915050565b600073ffffffffffffffffffffffffffffffffffffffff82169050919050565b60006113b182611386565b9050919050565b6113c1816113a6565b82525050565b600081519050919050565b600082825260208201905092915050565b6000819050602082019050919050565b60006113ff83836112e7565b60208301905092915050565b6000602082019050919050565b6000611423826113c7565b61142d81856113d2565b9350611438836113e3565b8060005b8381101561146957815161145088826113f3565b975061145b8361140b565b92505060018101905061143c565b5085935050505092915050565b600060e08301600083015161148e60008601826112e7565b50602083015184820360208601526114a6828261134d565b91505060408301516114bb60408601826112e7565b50606083015184820360608601526114d3828261134d565b91505060808301516114e860808601826113b8565b5060a08301516114fb60a08601826113b8565b5060c083015184820360c08601526115138282611418565b9150508091505092915050565b6000602082019050818103600083015261153a8184611476565b905092915050565b600080fd5b600080fd5b7f4e487b7100000000000000000000000000000000000000000000000000000000600052604160045260246000fd5b6115848261133c565b810181811067ffffffffffffffff821117156115a3576115a261154c565b5b80604052505050565b60006115b6611230565b90506115c2828261157b565b919050565b600067ffffffffffffffff8211156115e2576115e161154c565b5b6115eb8261133c565b9050602081019050919050565b82818337600083830152505050565b600061161a611615846115c7565b6115ac565b90508281526020810184848401111561163657611635611547565b5b6116418482856115f8565b509392505050565b600082601f83011261165e5761165d611542565b5b813561166e848260208601611607565b91505092915050565b600080600080608085870312156116915761169061123a565b5b600061169f87828801611265565b94505060206116b087828801611265565b935050604085013567ffffffffffffffff8111156116d1576116d061123f565b5b6116dd87828801611649565b925050606085013567ffffffffffffffff8111156116fe576116fd61123f565b5b61170a87828801611649565b91505092959194509250565b60008115159050919050565b61172b81611716565b82525050565b600060e08301600083015161174960008601826112e7565b50602083015161175c60208601826112e7565b50604083015161176f60408601826112e7565b5060608301518482036060860152611787828261134d565b915050608083015184820360808601526117a1828261134d565b91505060a08301516117b660a0860182611722565b5060c08301516117c960c08601826113b8565b508091505092915050565b600060208201905081810360008301526117ee8184611731565b905092915050565b6117ff816113a6565b811461180a57600080fd5b50565b60008135905061181c816117f6565b92915050565b600080604083850312156118395761183861123a565b5b600061184785828601611265565b92505060206118588582860161180d565b9150509250929050565b60008060006060848603121561187b5761187a61123a565b5b600084013567ffffffffffffffff8111156118995761189861123f565b5b6118a586828701611649565b93505060206118b686828701611265565b925050604084013567ffffffffffffffff8111156118d7576118d661123f565b5b6118e386828701611649565b9150509250925092565b600081519050919050565b600082825260208201905092915050565b6000819050602082019050919050565b600060e08301600083015161193160008601826112e7565b50602083015161194460208601826112e7565b50604083015161195760408601826112e7565b506060830151848203606086015261196f828261134d565b91505060808301518482036080860152611989828261134d565b91505060a083015161199e60a0860182611722565b5060c08301516119b160c08601826113b8565b508091505092915050565b60006119c88383611919565b905092915050565b6000602082019050919050565b60006119e8826118ed565b6119f281856118f8565b935083602082028501611a0485611909565b8060005b85811015611a405784840389528151611a2185826119bc565b9450611a2c836119d0565b925060208a01995050600181019050611a08565b50829750879550505050505092915050565b60006020820190508181036000830152611a6c81846119dd565b905092915050565b600082825260208201905092915050565b7f4f6e6c79207468652061737369676e656420696e737572616e636520636f6d7060008201527f616e792063616e2070726f6365737320746869732062696c6c00000000000000602082015250565b6000611ae1603983611a74565b9150611aec82611a85565b604082019050919050565b60006020820190508181036000830152611b1081611ad4565b9050919050565b7f4d65646963616c2062696c6c20616c72656164792070726f6365737365640000600082015250565b6000611b4d601e83611a74565b9150611b5882611b17565b602082019050919050565b60006020820190508181036000830152611b7c81611b40565b9050919050565b611b8c81611244565b82525050565b6000604082019050611ba76000830185611b83565b611bb46020830184611b83565b9392505050565b7f4e487b7100000000000000000000000000000000000000000000000000000000600052602260045260246000fd5b60006002820490506001821680611c0257607f821691505b602082108103611c1557611c14611bbb565b5b50919050565b7f4f6e6c792074686520617574686f72697a656420686f73706974616c2063616e60008201527f20616464206d65646963616c2062696c6c730000000000000000000000000000602082015250565b6000611c77603283611a74565b9150611c8282611c1b565b604082019050919050565b60006020820190508181036000830152611ca681611c6a565b9050919050565b7f4e487b7100000000000000000000000000000000000000000000000000000000600052601160045260246000fd5b6000611ce782611244565b9150611cf283611244565b9250828201905080821115611d0a57611d09611cad565b5b92915050565b6000611d1b82611244565b91507fffffffffffffffffffffffffffffffffffffffffffffffffffffffffffffffff8203611d4d57611d4c611cad565b5b600182019050919050565b60008190508160005260206000209050919050565b60006020601f8301049050919050565b600082821b905092915050565b600060088302611dba7fffffffffffffffffffffffffffffffffffffffffffffffffffffffffffffffff82611d7d565b611dc48683611d7d565b95508019841693508086168417925050509392505050565b6000819050919050565b6000611e01611dfc611df784611244565b611ddc565b611244565b9050919050565b6000819050919050565b611e1b83611de6565b611e2f611e2782611e08565b848454611d8a565b825550505050565b600090565b611e44611e37565b611e4f818484611e12565b505050565b5b81811015611e7357611e68600082611e3c565b600181019050611e55565b5050565b601f821115611eb857611e8981611d58565b611e9284611d6d565b81016020851015611ea1578190505b611eb5611ead85611d6d565b830182611e54565b50505b505050565b600082821c905092915050565b6000611edb60001984600802611ebd565b1980831691505092915050565b6000611ef48383611eca565b9150826002028217905092915050565b611f0d826112f6565b67ffffffffffffffff811115611f2657611f2561154c565b5b611f308254611bea565b611f3b828285611e77565b600060209050601f831160018114611f6e5760008415611f5c578287015190505b611f668582611ee8565b865550611fce565b601f198416611f7c86611d58565b60005b82811015611fa457848901518255600182019150602085019450602081019050611f7f565b86831015611fc15784890151611fbd601f891682611eca565b8355505b6001600288020188555050505b505050505050565b6000611fe1826112f6565b611feb8185611a74565b9350611ffb818560208601611312565b6120048161133c565b840191505092915050565b612018816113a6565b82525050565b600060c0820190506120336000830189611b83565b6120406020830188611b83565b61204d6040830187611b83565b818103606083015261205f8186611fd6565b905081810360808301526120738185611fd6565b905061208260a083018461200f565b979650505050505050565b7f4e487b7100000000000000000000000000000000000000000000000000000000600052603260045260246000fd5b60006040820190506120d16000830185611b83565b6120de602083018461200f565b9392505050565b7f4f6e6c792074686520617574686f72697a656420686f73706974616c2063616e60008201527f206164642070617469656e747300000000000000000000000000000000000000602082015250565b6000612141602d83611a74565b915061214c826120e5565b604082019050919050565b6000602082019050818103600083015261217081612134565b9050919050565b600060a08201905061218c6000830188611b83565b818103602083015261219e8187611fd6565b90506121ad6040830186611b83565b81810360608301526121bf8185611fd6565b90506121ce608083018461200f565b969550505050505056fea2646970667358221220261c82a7415e0d8c302f67142050ec666821b267cf392d572780526baed1539c64736f6c63430008110033",
  "immutableReferences": {},
  "source": "// SPDX-License-Identifier: MIT\r\npragma solidity ^0.8.0;\r\n\r\ncontract PatientDataManagementSystem {\r\n    struct Patient {\r\n        uint256 id;\r\n        string name;\r\n        uint256 age;\r\n        string medicalHistory;\r\n        address patientAddress;\r\n        address insuranceCompany;\r\n        uint256[] billIds;\r\n    }\r\n\r\n    struct MedicalBill {\r\n        uint256 patientId;\r\n        uint256 billId;\r\n        uint256 amount;\r\n        string description;\r\n        string treatmentDate;\r\n        bool isProcessed;\r\n        address insuranceCompany;\r\n    }\r\n\r\n    mapping(uint256 => Patient) patients;\r\n    mapping(uint256 => mapping(uint256 => MedicalBill)) medicalBills;\r\n    address authorizedHospital;\r\n    uint256 patientCounter;\r\n    mapping(uint256 => uint256) billCounters;\r\n\r\n    event NewPatient(uint256 id, string name, uint256 age, string medicalHistory, address patientAddress);\r\n    event NewMedicalBill(uint256 patientId, uint256 billId, uint256 amount, string description, string treatmentDate, address insuranceCompany);\r\n    event MedicalBillProcessed(uint256 patientId, uint256 billId);\r\n    event InsuranceCompanyAssigned(uint256 patientId, address insuranceCompany);\r\n\r\n    constructor(address _authorizedHospital) {\r\n        authorizedHospital = _authorizedHospital;\r\n    }\r\n    \r\n    function addPatient(string memory _name, uint256 _age, string memory _medicalHistory) public {\r\n        require(msg.sender == authorizedHospital, \"Only the authorized hospital can add patients\");\r\n        patientCounter++;\r\n        patients[patientCounter] = Patient(patientCounter, _name, _age, _medicalHistory, msg.sender, address(0), new uint256[](0));\r\n        emit NewPatient(patientCounter, _name, _age, _medicalHistory, msg.sender);\r\n    }\r\n\r\n    function addMedicalBill(uint256 _patientId, uint256 _amount, string memory _description, string memory _treatmentDate) public {\r\n        require(msg.sender == authorizedHospital, \"Only the authorized hospital can add medical bills\");\r\n        uint256 billId = billCounters[_patientId] + 1;\r\n        billCounters[_patientId]++;\r\n        medicalBills[_patientId][billId] = MedicalBill(billId, _patientId, _amount, _description, _treatmentDate, false, address(0));\r\n        patients[_patientId].billIds.push(billId);\r\n        emit NewMedicalBill(_patientId, billId, _amount, _description, _treatmentDate, address(0));\r\n    }\r\n\r\n    function assignInsuranceCompany(uint256 _patientId, address _insuranceCompany) public {\r\n        patients[_patientId].insuranceCompany = _insuranceCompany;\r\n        // Update insuranceCompany field for all medical bills of the patient\r\n        uint256[] storage billIds = patients[_patientId].billIds;\r\n        for (uint256 i = 0; i < billIds.length; i++) {\r\n            uint256 billId = billIds[i];\r\n            medicalBills[_patientId][billId].insuranceCompany = _insuranceCompany;\r\n        }\r\n        emit InsuranceCompanyAssigned(_patientId, _insuranceCompany);\r\n    }\r\n\r\n    function processMedicalBill(uint256 _patientId, uint256 _billId) public {\r\n        require(msg.sender == medicalBills[_patientId][_billId].insuranceCompany, \"Only the assigned insurance company can process this bill\");\r\n        require(medicalBills[_patientId][_billId].isProcessed == false, \"Medical bill already processed\");\r\n        medicalBills[_patientId][_billId].isProcessed = true;\r\n        emit MedicalBillProcessed(_patientId, _billId);\r\n    }\r\n\r\n    function getPatient(uint256 _id) public view returns (Patient memory) {\r\n        return patients[_id];\r\n    }\r\n\r\n    function getMedicalBill(uint256 _patientId, uint256 _billId) public view returns (MedicalBill memory) {\r\n        return medicalBills[_patientId][_billId];\r\n    }\r\n\r\n    function getAllMedicalRecords(uint256 _patientId) public view returns (MedicalBill[] memory) {\r\n        uint256[] memory billIds = patients[_patientId].billIds;\r\n        MedicalBill[] memory medicalRecords = new MedicalBill[](billIds.length);\r\n        for (uint256 i = 0; i < billIds.length; i++) {\r\n            medicalRecords[i] = medicalBills[_patientId][billIds[i]];\r\n        }\r\n        return medicalRecords;\r\n    }\r\n}\r\n",
  "sourcePath": "D:\\semester 6\\Block Chain\\Project\\patient\\medi-chain-new\\medi-chain-new\\contracts\\PatientDataManagementSystem.sol",
  "compiler": {
    "name": "solc",
    "version": "0.8.17+commit.8df45f5f.Emscripten.clang"
  },
  "schemaVersion": "3.4.16",
  "updatedAt": "2024-04-14T14:22:46.438Z",
  "networkType": "ethereum",
  "devdoc": {
    "kind": "dev",
    "methods": {},
    "version": 1
  },
  "userdoc": {
    "kind": "user",
    "methods": {},
    "version": 1
  }
}