{
  "contractName": "PatientDataManagementSystem",
  "abi": [
    {
      "inputs": [
        {
          "internalType": "address",
          "name": "_authorizedHospital",
          "type": "address"
        }
      ],
      "stateMutability": "nonpayable",
      "type": "constructor"
    },
    {
      "anonymous": false,
      "inputs": [
        {
          "indexed": false,
          "internalType": "uint256",
          "name": "patientId",
          "type": "uint256"
        },
        {
          "indexed": false,
          "internalType": "address",
          "name": "insuranceCompany",
          "type": "address"
        }
      ],
      "name": "InsuranceCompanyAssigned",
      "type": "event"
    },
    {
      "anonymous": false,
      "inputs": [
        {
          "indexed": false,
          "internalType": "uint256",
          "name": "patientId",
          "type": "uint256"
        },
        {
          "indexed": false,
          "internalType": "uint256",
          "name": "billId",
          "type": "uint256"
        }
      ],
      "name": "MedicalBillProcessed",
      "type": "event"
    },
    {
      "anonymous": false,
      "inputs": [
        {
          "indexed": false,
          "internalType": "uint256",
          "name": "patientId",
          "type": "uint256"
        },
        {
          "indexed": false,
          "internalType": "uint256",
          "name": "billId",
          "type": "uint256"
        },
        {
          "indexed": false,
          "internalType": "uint256",
          "name": "amount",
          "type": "uint256"
        },
        {
          "indexed": false,
          "internalType": "string",
          "name": "description",
          "type": "string"
        },
        {
          "indexed": false,
          "internalType": "string",
          "name": "treatmentDate",
          "type": "string"
        },
        {
          "indexed": false,
          "internalType": "address",
          "name": "insuranceCompany",
          "type": "address"
        }
      ],
      "name": "NewMedicalBill",
      "type": "event"
    },
    {
      "anonymous": false,
      "inputs": [
        {
          "indexed": false,
          "internalType": "uint256",
          "name": "id",
          "type": "uint256"
        },
        {
          "indexed": false,
          "internalType": "string",
          "name": "name",
          "type": "string"
        },
        {
          "indexed": false,
          "internalType": "uint256",
          "name": "age",
          "type": "uint256"
        },
        {
          "indexed": false,
          "internalType": "string",
          "name": "medicalHistory",
          "type": "string"
        },
        {
          "indexed": false,
          "internalType": "address",
          "name": "patientAddress",
          "type": "address"
        }
      ],
      "name": "NewPatient",
      "type": "event"
    },
    {
      "inputs": [
        {
          "internalType": "uint256",
          "name": "_id",
          "type": "uint256"
        },
        {
          "internalType": "string",
          "name": "_name",
          "type": "string"
        },
        {
          "internalType": "string",
          "name": "_mobile",
          "type": "string"
        },
        {
          "internalType": "string",
          "name": "_email",
          "type": "string"
        },
        {
          "internalType": "string",
          "name": "_bloodGroup",
          "type": "string"
        },
        {
          "internalType": "string",
          "name": "_gender",
          "type": "string"
        },
        {
          "internalType": "string",
          "name": "_occupation",
          "type": "string"
        },
        {
          "internalType": "string",
          "name": "_marriedStatus",
          "type": "string"
        },
        {
          "internalType": "uint256",
          "name": "_age",
          "type": "uint256"
        },
        {
          "internalType": "string",
          "name": "_medicalHistory",
          "type": "string"
        }
      ],
      "name": "addPatient",
      "outputs": [],
      "stateMutability": "nonpayable",
      "type": "function"
    },
    {
      "inputs": [
        {
          "internalType": "uint256",
          "name": "_patientId",
          "type": "uint256"
        },
        {
          "internalType": "uint256",
          "name": "_amount",
          "type": "uint256"
        },
        {
          "internalType": "string",
          "name": "_description",
          "type": "string"
        },
        {
          "internalType": "string",
          "name": "_treatmentDate",
          "type": "string"
        }
      ],
      "name": "addMedicalBill",
      "outputs": [],
      "stateMutability": "nonpayable",
      "type": "function"
    },
    {
      "inputs": [
        {
          "internalType": "uint256",
          "name": "_patientId",
          "type": "uint256"
        },
        {
          "internalType": "uint256",
          "name": "billId",
          "type": "uint256"
        },
        {
          "internalType": "address",
          "name": "_insuranceCompany",
          "type": "address"
        }
      ],
      "name": "assignInsuranceCompany",
      "outputs": [],
      "stateMutability": "nonpayable",
      "type": "function"
    },
    {
      "inputs": [
        {
          "internalType": "uint256",
          "name": "_patientId",
          "type": "uint256"
        },
        {
          "internalType": "uint256",
          "name": "_billId",
          "type": "uint256"
        }
      ],
      "name": "processMedicalBill",
      "outputs": [],
      "stateMutability": "nonpayable",
      "type": "function"
    },
    {
      "inputs": [
        {
          "internalType": "uint256",
          "name": "_id",
          "type": "uint256"
        }
      ],
      "name": "getPatient",
      "outputs": [
        {
          "components": [
            {
              "internalType": "uint256",
              "name": "id",
              "type": "uint256"
            },
            {
              "internalType": "string",
              "name": "name",
              "type": "string"
            },
            {
              "internalType": "uint256",
              "name": "age",
              "type": "uint256"
            },
            {
              "internalType": "string",
              "name": "mobileNumber",
              "type": "string"
            },
            {
              "internalType": "string",
              "name": "email",
              "type": "string"
            },
            {
              "internalType": "string",
              "name": "bloodGroup",
              "type": "string"
            },
            {
              "internalType": "string",
              "name": "gender",
              "type": "string"
            },
            {
              "internalType": "string",
              "name": "occupation",
              "type": "string"
            },
            {
              "internalType": "string",
              "name": "marriedStatus",
              "type": "string"
            },
            {
              "internalType": "string",
              "name": "medicalHistory",
              "type": "string"
            },
            {
              "internalType": "address",
              "name": "patientAddress",
              "type": "address"
            },
            {
              "internalType": "address",
              "name": "insuranceCompany",
              "type": "address"
            },
            {
              "internalType": "uint256[]",
              "name": "billIds",
              "type": "uint256[]"
            }
          ],
          "internalType": "struct PatientDataManagementSystem.Patient",
          "name": "",
          "type": "tuple"
        }
      ],
      "stateMutability": "view",
      "type": "function"
    },
    {
      "inputs": [
        {
          "internalType": "uint256",
          "name": "_patientId",
          "type": "uint256"
        },
        {
          "internalType": "uint256",
          "name": "_billId",
          "type": "uint256"
        }
      ],
      "name": "getMedicalBill",
      "outputs": [
        {
          "components": [
            {
              "internalType": "uint256",
              "name": "patientId",
              "type": "uint256"
            },
            {
              "internalType": "uint256",
              "name": "billId",
              "type": "uint256"
            },
            {
              "internalType": "uint256",
              "name": "amount",
              "type": "uint256"
            },
            {
              "internalType": "string",
              "name": "description",
              "type": "string"
            },
            {
              "internalType": "string",
              "name": "treatmentDate",
              "type": "string"
            },
            {
              "internalType": "bool",
              "name": "isProcessed",
              "type": "bool"
            },
            {
              "internalType": "address",
              "name": "insuranceCompany",
              "type": "address"
            }
          ],
          "internalType": "struct PatientDataManagementSystem.MedicalBill",
          "name": "",
          "type": "tuple"
        }
      ],
      "stateMutability": "view",
      "type": "function"
    },
    {
      "inputs": [
        {
          "internalType": "uint256",
          "name": "_patientId",
          "type": "uint256"
        }
      ],
      "name": "getAllMedicalRecords",
      "outputs": [
        {
          "components": [
            {
              "internalType": "uint256",
              "name": "patientId",
              "type": "uint256"
            },
            {
              "internalType": "uint256",
              "name": "billId",
              "type": "uint256"
            },
            {
              "internalType": "uint256",
              "name": "amount",
              "type": "uint256"
            },
            {
              "internalType": "string",
              "name": "description",
              "type": "string"
            },
            {
              "internalType": "string",
              "name": "treatmentDate",
              "type": "string"
            },
            {
              "internalType": "bool",
              "name": "isProcessed",
              "type": "bool"
            },
            {
              "internalType": "address",
              "name": "insuranceCompany",
              "type": "address"
            }
          ],
          "internalType": "struct PatientDataManagementSystem.MedicalBill[]",
          "name": "",
          "type": "tuple[]"
        }
      ],
      "stateMutability": "view",
      "type": "function"
    }
  ],
  "bytecode": "0x60806040523480156200001157600080fd5b5060405162002ab238038062002ab28339818101604052810190620000379190620000e9565b80600260006101000a81548173ffffffffffffffffffffffffffffffffffffffff021916908373ffffffffffffffffffffffffffffffffffffffff160217905550506200011b565b600080fd5b600073ffffffffffffffffffffffffffffffffffffffff82169050919050565b6000620000b18262000084565b9050919050565b620000c381620000a4565b8114620000cf57600080fd5b50565b600081519050620000e381620000b8565b92915050565b6000602082840312156200010257620001016200007f565b5b60006200011284828501620000d2565b91505092915050565b612987806200012b6000396000f3fe608060405234801561001057600080fd5b506004361061007d5760003560e01c8063980adec71161005b578063980adec7146100ea5780639a0b3d1e14610106578063d020f57514610136578063f622933f146101525761007d565b80636762b429146100825780637c825cff1461009e5780637d3a6796146100ba575b600080fd5b61009c60048036038101906100979190611773565b610182565b005b6100b860048036038101906100b39190611811565b61032e565b005b6100d460048036038101906100cf9190611864565b61054f565b6040516100e19190611b3f565b60405180910390f35b61010460048036038101906100ff9190611c96565b610b24565b005b610120600480360381019061011b9190611773565b610dab565b60405161012d9190611df3565b60405180910390f35b610150600480360381019061014b9190611e15565b610f9d565b005b61016c60048036038101906101679190611864565b6112cf565b6040516101799190612139565b60405180910390f35b60016000838152602001908152602001600020600082815260200190815260200160002060050160019054906101000a900473ffffffffffffffffffffffffffffffffffffffff1673ffffffffffffffffffffffffffffffffffffffff163373ffffffffffffffffffffffffffffffffffffffff1614610237576040517f08c379a000000000000000000000000000000000000000000000000000000000815260040161022e906121de565b60405180910390fd5b6000151560016000848152602001908152602001600020600083815260200190815260200160002060050160009054906101000a900460ff161515146102b2576040517f08c379a00000000000000000000000000000000000000000000000000000000081526004016102a99061224a565b60405180910390fd5b6001806000848152602001908152602001600020600083815260200190815260200160002060050160006101000a81548160ff0219169083151502179055507f613c8a26197a827aab77a97d97e959ddfea9b65ca0cfc6a946d9144c6a4e361d8282604051610322929190612279565b60405180910390a15050565b600073ffffffffffffffffffffffffffffffffffffffff1660016000858152602001908152602001600020600084815260200190815260200160002060050160019054906101000a900473ffffffffffffffffffffffffffffffffffffffff1673ffffffffffffffffffffffffffffffffffffffff161480156104125750600073ffffffffffffffffffffffffffffffffffffffff16600080858152602001908152602001600020600b0160009054906101000a900473ffffffffffffffffffffffffffffffffffffffff1673ffffffffffffffffffffffffffffffffffffffff16145b1561050f5780600080858152602001908152602001600020600b0160006101000a81548173ffffffffffffffffffffffffffffffffffffffff021916908373ffffffffffffffffffffffffffffffffffffffff1602179055508060016000858152602001908152602001600020600084815260200190815260200160002060050160016101000a81548173ffffffffffffffffffffffffffffffffffffffff021916908373ffffffffffffffffffffffffffffffffffffffff1602179055507fe8dfa1000a377c1be6687e0c2f30a28b8ab10bc929a3272894b169f3385dea8b83826040516105029291906122b1565b60405180910390a161054a565b6040517f08c379a00000000000000000000000000000000000000000000000000000000081526004016105419061234c565b60405180910390fd5b505050565b6105576115d6565b600080838152602001908152602001600020604051806101a00160405290816000820154815260200160018201805461058f9061239b565b80601f01602080910402602001604051908101604052809291908181526020018280546105bb9061239b565b80156106085780601f106105dd57610100808354040283529160200191610608565b820191906000526020600020905b8154815290600101906020018083116105eb57829003601f168201915b505050505081526020016002820154815260200160038201805461062b9061239b565b80601f01602080910402602001604051908101604052809291908181526020018280546106579061239b565b80156106a45780601f10610679576101008083540402835291602001916106a4565b820191906000526020600020905b81548152906001019060200180831161068757829003601f168201915b505050505081526020016004820180546106bd9061239b565b80601f01602080910402602001604051908101604052809291908181526020018280546106e99061239b565b80156107365780601f1061070b57610100808354040283529160200191610736565b820191906000526020600020905b81548152906001019060200180831161071957829003601f168201915b5050505050815260200160058201805461074f9061239b565b80601f016020809104026020016040519081016040528092919081815260200182805461077b9061239b565b80156107c85780601f1061079d576101008083540402835291602001916107c8565b820191906000526020600020905b8154815290600101906020018083116107ab57829003601f168201915b505050505081526020016006820180546107e19061239b565b80601f016020809104026020016040519081016040528092919081815260200182805461080d9061239b565b801561085a5780601f1061082f5761010080835404028352916020019161085a565b820191906000526020600020905b81548152906001019060200180831161083d57829003601f168201915b505050505081526020016007820180546108739061239b565b80601f016020809104026020016040519081016040528092919081815260200182805461089f9061239b565b80156108ec5780601f106108c1576101008083540402835291602001916108ec565b820191906000526020600020905b8154815290600101906020018083116108cf57829003601f168201915b505050505081526020016008820180546109059061239b565b80601f01602080910402602001604051908101604052809291908181526020018280546109319061239b565b801561097e5780601f106109535761010080835404028352916020019161097e565b820191906000526020600020905b81548152906001019060200180831161096157829003601f168201915b505050505081526020016009820180546109979061239b565b80601f01602080910402602001604051908101604052809291908181526020018280546109c39061239b565b8015610a105780601f106109e557610100808354040283529160200191610a10565b820191906000526020600020905b8154815290600101906020018083116109f357829003601f168201915b50505050508152602001600a820160009054906101000a900473ffffffffffffffffffffffffffffffffffffffff1673ffffffffffffffffffffffffffffffffffffffff1673ffffffffffffffffffffffffffffffffffffffff168152602001600b820160009054906101000a900473ffffffffffffffffffffffffffffffffffffffff1673ffffffffffffffffffffffffffffffffffffffff1673ffffffffffffffffffffffffffffffffffffffff168152602001600c8201805480602002602001604051908101604052809291908181526020018280548015610b1457602002820191906000526020600020905b815481526020019060010190808311610b00575b5050505050815250509050919050565b600260009054906101000a900473ffffffffffffffffffffffffffffffffffffffff1673ffffffffffffffffffffffffffffffffffffffff163373ffffffffffffffffffffffffffffffffffffffff1614610bb4576040517f08c379a0000000000000000000000000000000000000000000000000000000008152600401610bab9061243e565b60405180910390fd5b600060016004600087815260200190815260200160002054610bd6919061248d565b9050600460008681526020019081526020016000206000815480929190610bfc906124c1565b91905055506040518060e00160405280828152602001868152602001858152602001848152602001838152602001600015158152602001600073ffffffffffffffffffffffffffffffffffffffff168152506001600087815260200190815260200160002060008381526020019081526020016000206000820151816000015560208201518160010155604082015181600201556060820151816003019081610ca591906126b5565b506080820151816004019081610cbb91906126b5565b5060a08201518160050160006101000a81548160ff02191690831515021790555060c08201518160050160016101000a81548173ffffffffffffffffffffffffffffffffffffffff021916908373ffffffffffffffffffffffffffffffffffffffff160217905550905050600080868152602001908152602001600020600c018190806001815401808255809150506001900390600052602060002001600090919091909150557ff33b4498d0bbe456a9076d829114ba6d61506cb062e27b3cf55e250ef298f45785828686866000604051610d9c969594939291906127c0565b60405180910390a15050505050565b610db361166a565b6001600084815260200190815260200160002060008381526020019081526020016000206040518060e0016040529081600082015481526020016001820154815260200160028201548152602001600382018054610e109061239b565b80601f0160208091040260200160405190810160405280929190818152602001828054610e3c9061239b565b8015610e895780601f10610e5e57610100808354040283529160200191610e89565b820191906000526020600020905b815481529060010190602001808311610e6c57829003601f168201915b50505050508152602001600482018054610ea29061239b565b80601f0160208091040260200160405190810160405280929190818152602001828054610ece9061239b565b8015610f1b5780601f10610ef057610100808354040283529160200191610f1b565b820191906000526020600020905b815481529060010190602001808311610efe57829003601f168201915b505050505081526020016005820160009054906101000a900460ff161515151581526020016005820160019054906101000a900473ffffffffffffffffffffffffffffffffffffffff1673ffffffffffffffffffffffffffffffffffffffff1673ffffffffffffffffffffffffffffffffffffffff1681525050905092915050565b600260009054906101000a900473ffffffffffffffffffffffffffffffffffffffff1673ffffffffffffffffffffffffffffffffffffffff163373ffffffffffffffffffffffffffffffffffffffff161461102d576040517f08c379a0000000000000000000000000000000000000000000000000000000008152600401611024906128a1565b60405180910390fd5b604051806101a001604052808b81526020018a81526020018381526020018981526020018881526020018781526020018681526020018581526020018481526020018281526020013373ffffffffffffffffffffffffffffffffffffffff168152602001600073ffffffffffffffffffffffffffffffffffffffff168152602001600067ffffffffffffffff8111156110c9576110c8611b6b565b5b6040519080825280602002602001820160405280156110f75781602001602082028036833780820191505090505b508152506000808c815260200190815260200160002060008201518160000155602082015181600101908161112c91906126b5565b5060408201518160020155606082015181600301908161114c91906126b5565b50608082015181600401908161116291906126b5565b5060a082015181600501908161117891906126b5565b5060c082015181600601908161118e91906126b5565b5060e08201518160070190816111a491906126b5565b506101008201518160080190816111bb91906126b5565b506101208201518160090190816111d291906126b5565b5061014082015181600a0160006101000a81548173ffffffffffffffffffffffffffffffffffffffff021916908373ffffffffffffffffffffffffffffffffffffffff16021790555061016082015181600b0160006101000a81548173ffffffffffffffffffffffffffffffffffffffff021916908373ffffffffffffffffffffffffffffffffffffffff16021790555061018082015181600c0190805190602001906112809291906116bf565b509050507ff601e85cdfc0dc6ee174a2fa9131668562f1bd9eca109a01ccc68841f4424e6c8a8a8484336040516112bb9594939291906128c1565b60405180910390a150505050505050505050565b60606000806000848152602001908152602001600020600c0180548060200260200160405190810160405280929190818152602001828054801561133257602002820191906000526020600020905b81548152602001906001019080831161131e575b505050505090506000815167ffffffffffffffff81111561135657611355611b6b565b5b60405190808252806020026020018201604052801561138f57816020015b61137c61166a565b8152602001906001900390816113745790505b50905060005b82518110156115cb576001600086815260200190815260200160002060008483815181106113c6576113c5612922565b5b602002602001015181526020019081526020016000206040518060e00160405290816000820154815260200160018201548152602001600282015481526020016003820180546114159061239b565b80601f01602080910402602001604051908101604052809291908181526020018280546114419061239b565b801561148e5780601f106114635761010080835404028352916020019161148e565b820191906000526020600020905b81548152906001019060200180831161147157829003601f168201915b505050505081526020016004820180546114a79061239b565b80601f01602080910402602001604051908101604052809291908181526020018280546114d39061239b565b80156115205780601f106114f557610100808354040283529160200191611520565b820191906000526020600020905b81548152906001019060200180831161150357829003601f168201915b505050505081526020016005820160009054906101000a900460ff161515151581526020016005820160019054906101000a900473ffffffffffffffffffffffffffffffffffffffff1673ffffffffffffffffffffffffffffffffffffffff1673ffffffffffffffffffffffffffffffffffffffff16815250508282815181106115ad576115ac612922565b5b602002602001018190525080806115c3906124c1565b915050611395565b508092505050919050565b604051806101a0016040528060008152602001606081526020016000815260200160608152602001606081526020016060815260200160608152602001606081526020016060815260200160608152602001600073ffffffffffffffffffffffffffffffffffffffff168152602001600073ffffffffffffffffffffffffffffffffffffffff168152602001606081525090565b6040518060e001604052806000815260200160008152602001600081526020016060815260200160608152602001600015158152602001600073ffffffffffffffffffffffffffffffffffffffff1681525090565b8280548282559060005260206000209081019282156116fb579160200282015b828111156116fa5782518255916020019190600101906116df565b5b509050611708919061170c565b5090565b5b8082111561172557600081600090555060010161170d565b5090565b6000604051905090565b600080fd5b600080fd5b6000819050919050565b6117508161173d565b811461175b57600080fd5b50565b60008135905061176d81611747565b92915050565b6000806040838503121561178a57611789611733565b5b60006117988582860161175e565b92505060206117a98582860161175e565b9150509250929050565b600073ffffffffffffffffffffffffffffffffffffffff82169050919050565b60006117de826117b3565b9050919050565b6117ee816117d3565b81146117f957600080fd5b50565b60008135905061180b816117e5565b92915050565b60008060006060848603121561182a57611829611733565b5b60006118388682870161175e565b93505060206118498682870161175e565b925050604061185a868287016117fc565b9150509250925092565b60006020828403121561187a57611879611733565b5b60006118888482850161175e565b91505092915050565b61189a8161173d565b82525050565b600081519050919050565b600082825260208201905092915050565b60005b838110156118da5780820151818401526020810190506118bf565b60008484015250505050565b6000601f19601f8301169050919050565b6000611902826118a0565b61190c81856118ab565b935061191c8185602086016118bc565b611925816118e6565b840191505092915050565b611939816117d3565b82525050565b600081519050919050565b600082825260208201905092915050565b6000819050602082019050919050565b60006119778383611891565b60208301905092915050565b6000602082019050919050565b600061199b8261193f565b6119a5818561194a565b93506119b08361195b565b8060005b838110156119e15781516119c8888261196b565b97506119d383611983565b9250506001810190506119b4565b5085935050505092915050565b60006101a083016000830151611a076000860182611891565b5060208301518482036020860152611a1f82826118f7565b9150506040830151611a346040860182611891565b5060608301518482036060860152611a4c82826118f7565b91505060808301518482036080860152611a6682826118f7565b91505060a083015184820360a0860152611a8082826118f7565b91505060c083015184820360c0860152611a9a82826118f7565b91505060e083015184820360e0860152611ab482826118f7565b915050610100830151848203610100860152611ad082826118f7565b915050610120830151848203610120860152611aec82826118f7565b915050610140830151611b03610140860182611930565b50610160830151611b18610160860182611930565b50610180830151848203610180860152611b328282611990565b9150508091505092915050565b60006020820190508181036000830152611b5981846119ee565b905092915050565b600080fd5b600080fd5b7f4e487b7100000000000000000000000000000000000000000000000000000000600052604160045260246000fd5b611ba3826118e6565b810181811067ffffffffffffffff82111715611bc257611bc1611b6b565b5b80604052505050565b6000611bd5611729565b9050611be18282611b9a565b919050565b600067ffffffffffffffff821115611c0157611c00611b6b565b5b611c0a826118e6565b9050602081019050919050565b82818337600083830152505050565b6000611c39611c3484611be6565b611bcb565b905082815260208101848484011115611c5557611c54611b66565b5b611c60848285611c17565b509392505050565b600082601f830112611c7d57611c7c611b61565b5b8135611c8d848260208601611c26565b91505092915050565b60008060008060808587031215611cb057611caf611733565b5b6000611cbe8782880161175e565b9450506020611ccf8782880161175e565b935050604085013567ffffffffffffffff811115611cf057611cef611738565b5b611cfc87828801611c68565b925050606085013567ffffffffffffffff811115611d1d57611d1c611738565b5b611d2987828801611c68565b91505092959194509250565b60008115159050919050565b611d4a81611d35565b82525050565b600060e083016000830151611d686000860182611891565b506020830151611d7b6020860182611891565b506040830151611d8e6040860182611891565b5060608301518482036060860152611da682826118f7565b91505060808301518482036080860152611dc082826118f7565b91505060a0830151611dd560a0860182611d41565b5060c0830151611de860c0860182611930565b508091505092915050565b60006020820190508181036000830152611e0d8184611d50565b905092915050565b6000806000806000806000806000806101408b8d031215611e3957611e38611733565b5b6000611e478d828e0161175e565b9a505060208b013567ffffffffffffffff811115611e6857611e67611738565b5b611e748d828e01611c68565b99505060408b013567ffffffffffffffff811115611e9557611e94611738565b5b611ea18d828e01611c68565b98505060608b013567ffffffffffffffff811115611ec257611ec1611738565b5b611ece8d828e01611c68565b97505060808b013567ffffffffffffffff811115611eef57611eee611738565b5b611efb8d828e01611c68565b96505060a08b013567ffffffffffffffff811115611f1c57611f1b611738565b5b611f288d828e01611c68565b95505060c08b013567ffffffffffffffff811115611f4957611f48611738565b5b611f558d828e01611c68565b94505060e08b013567ffffffffffffffff811115611f7657611f75611738565b5b611f828d828e01611c68565b935050610100611f948d828e0161175e565b9250506101208b013567ffffffffffffffff811115611fb657611fb5611738565b5b611fc28d828e01611c68565b9150509295989b9194979a5092959850565b600081519050919050565b600082825260208201905092915050565b6000819050602082019050919050565b600060e0830160008301516120186000860182611891565b50602083015161202b6020860182611891565b50604083015161203e6040860182611891565b506060830151848203606086015261205682826118f7565b9150506080830151848203608086015261207082826118f7565b91505060a083015161208560a0860182611d41565b5060c083015161209860c0860182611930565b508091505092915050565b60006120af8383612000565b905092915050565b6000602082019050919050565b60006120cf82611fd4565b6120d98185611fdf565b9350836020820285016120eb85611ff0565b8060005b85811015612127578484038952815161210885826120a3565b9450612113836120b7565b925060208a019950506001810190506120ef565b50829750879550505050505092915050565b6000602082019050818103600083015261215381846120c4565b905092915050565b600082825260208201905092915050565b7f4f6e6c79207468652061737369676e656420696e737572616e636520636f6d7060008201527f616e792063616e2070726f6365737320746869732062696c6c00000000000000602082015250565b60006121c860398361215b565b91506121d38261216c565b604082019050919050565b600060208201905081810360008301526121f7816121bb565b9050919050565b7f4d65646963616c2062696c6c20616c72656164792070726f6365737365640000600082015250565b6000612234601e8361215b565b915061223f826121fe565b602082019050919050565b6000602082019050818103600083015261226381612227565b9050919050565b6122738161173d565b82525050565b600060408201905061228e600083018561226a565b61229b602083018461226a565b9392505050565b6122ab816117d3565b82525050565b60006040820190506122c6600083018561226a565b6122d360208301846122a2565b9392505050565b7f496e737572616e636520436f6d70616e7920616c72656164792061737369676e60008201527f6564000000000000000000000000000000000000000000000000000000000000602082015250565b600061233660228361215b565b9150612341826122da565b604082019050919050565b6000602082019050818103600083015261236581612329565b9050919050565b7f4e487b7100000000000000000000000000000000000000000000000000000000600052602260045260246000fd5b600060028204905060018216806123b357607f821691505b6020821081036123c6576123c561236c565b5b50919050565b7f4f6e6c792074686520617574686f72697a656420686f73706974616c2063616e60008201527f20616464206d65646963616c2062696c6c730000000000000000000000000000602082015250565b600061242860328361215b565b9150612433826123cc565b604082019050919050565b600060208201905081810360008301526124578161241b565b9050919050565b7f4e487b7100000000000000000000000000000000000000000000000000000000600052601160045260246000fd5b60006124988261173d565b91506124a38361173d565b92508282019050808211156124bb576124ba61245e565b5b92915050565b60006124cc8261173d565b91507fffffffffffffffffffffffffffffffffffffffffffffffffffffffffffffffff82036124fe576124fd61245e565b5b600182019050919050565b60008190508160005260206000209050919050565b60006020601f8301049050919050565b600082821b905092915050565b60006008830261256b7fffffffffffffffffffffffffffffffffffffffffffffffffffffffffffffffff8261252e565b612575868361252e565b95508019841693508086168417925050509392505050565b6000819050919050565b60006125b26125ad6125a88461173d565b61258d565b61173d565b9050919050565b6000819050919050565b6125cc83612597565b6125e06125d8826125b9565b84845461253b565b825550505050565b600090565b6125f56125e8565b6126008184846125c3565b505050565b5b81811015612624576126196000826125ed565b600181019050612606565b5050565b601f8211156126695761263a81612509565b6126438461251e565b81016020851015612652578190505b61266661265e8561251e565b830182612605565b50505b505050565b600082821c905092915050565b600061268c6000198460080261266e565b1980831691505092915050565b60006126a5838361267b565b9150826002028217905092915050565b6126be826118a0565b67ffffffffffffffff8111156126d7576126d6611b6b565b5b6126e1825461239b565b6126ec828285612628565b600060209050601f83116001811461271f576000841561270d578287015190505b6127178582612699565b86555061277f565b601f19841661272d86612509565b60005b8281101561275557848901518255600182019150602085019450602081019050612730565b86831015612772578489015161276e601f89168261267b565b8355505b6001600288020188555050505b505050505050565b6000612792826118a0565b61279c818561215b565b93506127ac8185602086016118bc565b6127b5816118e6565b840191505092915050565b600060c0820190506127d5600083018961226a565b6127e2602083018861226a565b6127ef604083018761226a565b81810360608301526128018186612787565b905081810360808301526128158185612787565b905061282460a08301846122a2565b979650505050505050565b7f4f6e6c792074686520617574686f72697a656420686f73706974616c2063616e60008201527f206164642070617469656e747300000000000000000000000000000000000000602082015250565b600061288b602d8361215b565b91506128968261282f565b604082019050919050565b600060208201905081810360008301526128ba8161287e565b9050919050565b600060a0820190506128d6600083018861226a565b81810360208301526128e88187612787565b90506128f7604083018661226a565b81810360608301526129098185612787565b905061291860808301846122a2565b9695505050505050565b7f4e487b7100000000000000000000000000000000000000000000000000000000600052603260045260246000fdfea2646970667358221220b3e1ec1c906219b31a2201d6524915a2dd22215b51ccfd78fb0e85c5a7124a4964736f6c63430008110033",
  "immutableReferences": {},
  "source": "// SPDX-License-Identifier: MIT\r\npragma solidity ^0.8.0;\r\n\r\ncontract PatientDataManagementSystem {\r\n    struct Patient {\r\n        uint256 id;\r\n        string name;\r\n        uint256 age;\r\n        string mobileNumber;\r\n        string email;\r\n        string bloodGroup;\r\n        string gender;\r\n        string occupation;\r\n        string marriedStatus;\r\n        string medicalHistory;\r\n        address patientAddress;\r\n        address insuranceCompany;\r\n        uint256[] billIds;\r\n    }\r\n\r\n    struct MedicalBill {\r\n        uint256 patientId;\r\n        uint256 billId;\r\n        uint256 amount;\r\n        string description;\r\n        string treatmentDate;\r\n        bool isProcessed;\r\n        address insuranceCompany;\r\n    }\r\n\r\n    mapping(uint256 => Patient) patients;\r\n    mapping(uint256 => mapping(uint256 => MedicalBill)) medicalBills;\r\n    address authorizedHospital;\r\n    uint256 patientCounter;\r\n    mapping(uint256 => uint256) billCounters;\r\n\r\n    event NewPatient(uint256 id, string name, uint256 age, string medicalHistory, address patientAddress);\r\n    event NewMedicalBill(uint256 patientId, uint256 billId, uint256 amount, string description, string treatmentDate, address insuranceCompany);\r\n    event MedicalBillProcessed(uint256 patientId, uint256 billId);\r\n    event InsuranceCompanyAssigned(uint256 patientId, address insuranceCompany);\r\n\r\n    constructor(address _authorizedHospital) {\r\n        authorizedHospital = _authorizedHospital;\r\n    }\r\n    \r\n    function addPatient(uint256 _id, string memory _name, string memory _mobile, string memory _email, string memory _bloodGroup,string memory _gender,string memory _occupation, string memory _marriedStatus, uint256 _age, string memory _medicalHistory) public {\r\n        require(msg.sender == authorizedHospital, \"Only the authorized hospital can add patients\");\r\n        patients[_id] = Patient(_id, _name, _age,_mobile,_email,_bloodGroup,_gender,_occupation,_marriedStatus, _medicalHistory,  msg.sender, address(0), new uint256[](0));\r\n        emit NewPatient(_id, _name, _age, _medicalHistory, msg.sender);\r\n    }\r\n\r\n    function addMedicalBill(uint256 _patientId, uint256 _amount, string memory _description, string memory _treatmentDate) public {\r\n        require(msg.sender == authorizedHospital, \"Only the authorized hospital can add medical bills\");\r\n        uint256 billId = billCounters[_patientId] + 1;\r\n        billCounters[_patientId]++;\r\n        medicalBills[_patientId][billId] = MedicalBill(billId, _patientId, _amount, _description, _treatmentDate, false, address(0));\r\n        patients[_patientId].billIds.push(billId);\r\n        emit NewMedicalBill(_patientId, billId, _amount, _description, _treatmentDate, address(0));\r\n    }\r\n\r\n    function assignInsuranceCompany(uint256 _patientId, uint256 billId,  address _insuranceCompany) public {\r\n        if(medicalBills[_patientId][billId].insuranceCompany == address(0) && patients[_patientId].insuranceCompany == address(0)){\r\n            patients[_patientId].insuranceCompany = _insuranceCompany;\r\n            medicalBills[_patientId][billId].insuranceCompany = _insuranceCompany;\r\n            emit InsuranceCompanyAssigned(_patientId, _insuranceCompany);\r\n        }\r\n        else{\r\n            revert(\"Insurance Company already assigned\");\r\n        }\r\n    }\r\n\r\n    function processMedicalBill(uint256 _patientId, uint256 _billId) public {\r\n        require(msg.sender == medicalBills[_patientId][_billId].insuranceCompany, \"Only the assigned insurance company can process this bill\");\r\n        require(medicalBills[_patientId][_billId].isProcessed == false, \"Medical bill already processed\");\r\n        medicalBills[_patientId][_billId].isProcessed = true;\r\n        emit MedicalBillProcessed(_patientId, _billId);\r\n    }\r\n\r\n    function getPatient(uint256 _id) public view returns (Patient memory) {\r\n        return patients[_id];\r\n    }\r\n\r\n    function getMedicalBill(uint256 _patientId, uint256 _billId) public view returns (MedicalBill memory) {\r\n        return medicalBills[_patientId][_billId];\r\n    }\r\n\r\n    function getAllMedicalRecords(uint256 _patientId) public view returns (MedicalBill[] memory) {\r\n        uint256[] memory billIds = patients[_patientId].billIds;\r\n        MedicalBill[] memory medicalRecords = new MedicalBill[](billIds.length);\r\n        for (uint256 i = 0; i < billIds.length; i++) {\r\n            medicalRecords[i] = medicalBills[_patientId][billIds[i]];\r\n        }\r\n        return medicalRecords;\r\n    }\r\n}",
  "sourcePath": "D:\\semester 6\\Block Chain\\Project\\patient\\medi-chain-new\\medi-chain-new\\contracts\\PatientDataManagementSystem.sol",
  "compiler": {
    "name": "solc",
    "version": "0.8.17+commit.8df45f5f.Emscripten.clang"
  },
  "schemaVersion": "3.4.16",
  "updatedAt": "2024-04-15T11:16:35.807Z",
  "devdoc": {
    "kind": "dev",
    "methods": {},
    "version": 1
  },
  "userdoc": {
    "kind": "user",
    "methods": {},
    "version": 1
  }
}