{
  "contractName": "Registration",
  "abi": [
    {
      "anonymous": false,
      "inputs": [
        {
          "indexed": true,
          "internalType": "address",
          "name": "userAddress",
          "type": "address"
        },
        {
          "indexed": false,
          "internalType": "string",
          "name": "username",
          "type": "string"
        },
        {
          "indexed": false,
          "internalType": "string",
          "name": "email",
          "type": "string"
        },
        {
          "indexed": false,
          "internalType": "string",
          "name": "role",
          "type": "string"
        }
      ],
      "name": "UserRegistered",
      "type": "event"
    },
    {
      "inputs": [
        {
          "internalType": "address",
          "name": "",
          "type": "address"
        }
      ],
      "name": "users",
      "outputs": [
        {
          "internalType": "string",
          "name": "username",
          "type": "string"
        },
        {
          "internalType": "string",
          "name": "email",
          "type": "string"
        },
        {
          "internalType": "string",
          "name": "password",
          "type": "string"
        },
        {
          "internalType": "string",
          "name": "role",
          "type": "string"
        }
      ],
      "stateMutability": "view",
      "type": "function",
      "constant": true
    },
    {
      "inputs": [
        {
          "internalType": "string",
          "name": "_username",
          "type": "string"
        },
        {
          "internalType": "string",
          "name": "_email",
          "type": "string"
        },
        {
          "internalType": "string",
          "name": "_password",
          "type": "string"
        },
        {
          "internalType": "string",
          "name": "_role",
          "type": "string"
        }
      ],
      "name": "registerUser",
      "outputs": [],
      "stateMutability": "nonpayable",
      "type": "function"
    },
    {
      "inputs": [
        {
          "internalType": "address",
          "name": "_userAddress",
          "type": "address"
        }
      ],
      "name": "getUserData",
      "outputs": [
        {
          "internalType": "string",
          "name": "",
          "type": "string"
        },
        {
          "internalType": "string",
          "name": "",
          "type": "string"
        },
        {
          "internalType": "string",
          "name": "",
          "type": "string"
        },
        {
          "internalType": "string",
          "name": "",
          "type": "string"
        }
      ],
      "stateMutability": "view",
      "type": "function",
      "constant": true
    }
  ],
  "bytecode": "0x608060405234801561001057600080fd5b50610def806100206000396000f3fe608060405234801561001057600080fd5b50600436106100415760003560e01c806393e54a5614610046578063a87430ba14610062578063ffc9896b14610095575b600080fd5b610060600480360381019061005b9190610843565b6100c8565b005b61007c60048036038101906100779190610978565b6101da565b60405161008c9493929190610a24565b60405180910390f35b6100af60048036038101906100aa9190610978565b61042a565b6040516100bf9493929190610a24565b60405180910390f35b6040518060800160405280858152602001848152602001838152602001828152506000803373ffffffffffffffffffffffffffffffffffffffff1673ffffffffffffffffffffffffffffffffffffffff168152602001908152602001600020600082015181600001908161013c9190610c9b565b5060208201518160010190816101529190610c9b565b5060408201518160020190816101689190610c9b565b50606082015181600301908161017e9190610c9b565b509050503373ffffffffffffffffffffffffffffffffffffffff167f509c70f523067009f7db7f46db6956d7af8b679323680dc3821a8bad001ac1e18585846040516101cc93929190610d6d565b60405180910390a250505050565b60006020528060005260406000206000915090508060000180546101fd90610ab4565b80601f016020809104026020016040519081016040528092919081815260200182805461022990610ab4565b80156102765780601f1061024b57610100808354040283529160200191610276565b820191906000526020600020905b81548152906001019060200180831161025957829003601f168201915b50505050509080600101805461028b90610ab4565b80601f01602080910402602001604051908101604052809291908181526020018280546102b790610ab4565b80156103045780601f106102d957610100808354040283529160200191610304565b820191906000526020600020905b8154815290600101906020018083116102e757829003601f168201915b50505050509080600201805461031990610ab4565b80601f016020809104026020016040519081016040528092919081815260200182805461034590610ab4565b80156103925780601f1061036757610100808354040283529160200191610392565b820191906000526020600020905b81548152906001019060200180831161037557829003601f168201915b5050505050908060030180546103a790610ab4565b80601f01602080910402602001604051908101604052809291908181526020018280546103d390610ab4565b80156104205780601f106103f557610100808354040283529160200191610420565b820191906000526020600020905b81548152906001019060200180831161040357829003601f168201915b5050505050905084565b60608060608060008060008773ffffffffffffffffffffffffffffffffffffffff1673ffffffffffffffffffffffffffffffffffffffff16815260200190815260200160002060405180608001604052908160008201805461048b90610ab4565b80601f01602080910402602001604051908101604052809291908181526020018280546104b790610ab4565b80156105045780601f106104d957610100808354040283529160200191610504565b820191906000526020600020905b8154815290600101906020018083116104e757829003601f168201915b5050505050815260200160018201805461051d90610ab4565b80601f016020809104026020016040519081016040528092919081815260200182805461054990610ab4565b80156105965780601f1061056b57610100808354040283529160200191610596565b820191906000526020600020905b81548152906001019060200180831161057957829003601f168201915b505050505081526020016002820180546105af90610ab4565b80601f01602080910402602001604051908101604052809291908181526020018280546105db90610ab4565b80156106285780601f106105fd57610100808354040283529160200191610628565b820191906000526020600020905b81548152906001019060200180831161060b57829003601f168201915b5050505050815260200160038201805461064190610ab4565b80601f016020809104026020016040519081016040528092919081815260200182805461066d90610ab4565b80156106ba5780601f1061068f576101008083540402835291602001916106ba565b820191906000526020600020905b81548152906001019060200180831161069d57829003601f168201915b505050505081525050905080600001518160200151826040015183606001519450945094509450509193509193565b6000604051905090565b600080fd5b600080fd5b600080fd5b600080fd5b6000601f19601f8301169050919050565b7f4e487b7100000000000000000000000000000000000000000000000000000000600052604160045260246000fd5b61075082610707565b810181811067ffffffffffffffff8211171561076f5761076e610718565b5b80604052505050565b60006107826106e9565b905061078e8282610747565b919050565b600067ffffffffffffffff8211156107ae576107ad610718565b5b6107b782610707565b9050602081019050919050565b82818337600083830152505050565b60006107e66107e184610793565b610778565b90508281526020810184848401111561080257610801610702565b5b61080d8482856107c4565b509392505050565b600082601f83011261082a576108296106fd565b5b813561083a8482602086016107d3565b91505092915050565b6000806000806080858703121561085d5761085c6106f3565b5b600085013567ffffffffffffffff81111561087b5761087a6106f8565b5b61088787828801610815565b945050602085013567ffffffffffffffff8111156108a8576108a76106f8565b5b6108b487828801610815565b935050604085013567ffffffffffffffff8111156108d5576108d46106f8565b5b6108e187828801610815565b925050606085013567ffffffffffffffff811115610902576109016106f8565b5b61090e87828801610815565b91505092959194509250565b600073ffffffffffffffffffffffffffffffffffffffff82169050919050565b60006109458261091a565b9050919050565b6109558161093a565b811461096057600080fd5b50565b6000813590506109728161094c565b92915050565b60006020828403121561098e5761098d6106f3565b5b600061099c84828501610963565b91505092915050565b600081519050919050565b600082825260208201905092915050565b60005b838110156109df5780820151818401526020810190506109c4565b60008484015250505050565b60006109f6826109a5565b610a0081856109b0565b9350610a108185602086016109c1565b610a1981610707565b840191505092915050565b60006080820190508181036000830152610a3e81876109eb565b90508181036020830152610a5281866109eb565b90508181036040830152610a6681856109eb565b90508181036060830152610a7a81846109eb565b905095945050505050565b7f4e487b7100000000000000000000000000000000000000000000000000000000600052602260045260246000fd5b60006002820490506001821680610acc57607f821691505b602082108103610adf57610ade610a85565b5b50919050565b60008190508160005260206000209050919050565b60006020601f8301049050919050565b600082821b905092915050565b600060088302610b477fffffffffffffffffffffffffffffffffffffffffffffffffffffffffffffffff82610b0a565b610b518683610b0a565b95508019841693508086168417925050509392505050565b6000819050919050565b6000819050919050565b6000610b98610b93610b8e84610b69565b610b73565b610b69565b9050919050565b6000819050919050565b610bb283610b7d565b610bc6610bbe82610b9f565b848454610b17565b825550505050565b600090565b610bdb610bce565b610be6818484610ba9565b505050565b5b81811015610c0a57610bff600082610bd3565b600181019050610bec565b5050565b601f821115610c4f57610c2081610ae5565b610c2984610afa565b81016020851015610c38578190505b610c4c610c4485610afa565b830182610beb565b50505b505050565b600082821c905092915050565b6000610c7260001984600802610c54565b1980831691505092915050565b6000610c8b8383610c61565b9150826002028217905092915050565b610ca4826109a5565b67ffffffffffffffff811115610cbd57610cbc610718565b5b610cc78254610ab4565b610cd2828285610c0e565b600060209050601f831160018114610d055760008415610cf3578287015190505b610cfd8582610c7f565b865550610d65565b601f198416610d1386610ae5565b60005b82811015610d3b57848901518255600182019150602085019450602081019050610d16565b86831015610d585784890151610d54601f891682610c61565b8355505b6001600288020188555050505b505050505050565b60006060820190508181036000830152610d8781866109eb565b90508181036020830152610d9b81856109eb565b90508181036040830152610daf81846109eb565b905094935050505056fea26469706673582212200f1ba99d20e5e7ab7112835cb21eff5b616512325da92c92b5806aae65fd7ef464736f6c63430008110033",
  "immutableReferences": {},
  "source": "// SPDX-License-Identifier: MIT\r\npragma solidity ^0.8.0;\r\n\r\ncontract Registration {\r\n    struct User {\r\n        string username;\r\n        string email;\r\n        string password;\r\n        string role;\r\n    }\r\n\r\n    mapping(address => User) public users;\r\n\r\n    event UserRegistered(address indexed userAddress, string username, string email, string role);\r\n\r\n    function registerUser(string memory _username, string memory _email, string memory _password, string memory _role) public {\r\n        users[msg.sender] = User(_username, _email, _password, _role);\r\n        emit UserRegistered(msg.sender, _username, _email, _role);\r\n    }\r\n\r\n    function getUserData(address _userAddress) public view returns (string memory, string memory, string memory, string memory) {\r\n        User memory user = users[_userAddress];\r\n        return (user.username, user.email, user.password, user.role);\r\n    }\r\n}",
  "sourcePath": "D:\\semester 6\\Block Chain\\Project\\patient\\medi-chain\\contracts\\Registration.sol",
  "compiler": {
    "name": "solc",
    "version": "0.8.17+commit.8df45f5f.Emscripten.clang"
  },
  "schemaVersion": "3.4.16",
  "updatedAt": "2024-04-11T09:54:10.033Z",
  "networkType": "ethereum",
  "devdoc": {
    "kind": "dev",
    "methods": {},
    "version": 1
  },
  "userdoc": {
    "kind": "user",
    "methods": {},
    "version": 1
  }
}